{
  "_format": "hh-sol-artifact-1",
  "contractName": "MXDX",
  "sourceName": "contracts/MXDX.sol",
  "abi": [
    {
      "inputs": [],
      "stateMutability": "nonpayable",
      "type": "constructor"
    },
    {
      "anonymous": false,
      "inputs": [
        {
          "indexed": true,
          "internalType": "address",
          "name": "owner",
          "type": "address"
        },
        {
          "indexed": true,
          "internalType": "address",
          "name": "spender",
          "type": "address"
        },
        {
          "indexed": false,
          "internalType": "uint256",
          "name": "value",
          "type": "uint256"
        }
      ],
      "name": "Approval",
      "type": "event"
    },
    {
      "anonymous": false,
      "inputs": [
        {
          "indexed": true,
          "internalType": "address",
          "name": "from",
          "type": "address"
        },
        {
          "indexed": true,
          "internalType": "address",
          "name": "to",
          "type": "address"
        },
        {
          "indexed": false,
          "internalType": "uint256",
          "name": "value",
          "type": "uint256"
        }
      ],
      "name": "Transfer",
      "type": "event"
    },
    {
      "inputs": [
        {
          "internalType": "address",
          "name": "from",
          "type": "address"
        },
        {
          "internalType": "address",
          "name": "to",
          "type": "address"
        }
      ],
      "name": "allowance",
      "outputs": [
        {
          "internalType": "uint256",
          "name": "",
          "type": "uint256"
        }
      ],
      "stateMutability": "view",
      "type": "function"
    },
    {
      "inputs": [
        {
          "internalType": "address",
          "name": "to",
          "type": "address"
        },
        {
          "internalType": "uint256",
          "name": "amount",
          "type": "uint256"
        }
      ],
      "name": "approve",
      "outputs": [
        {
          "internalType": "bool",
          "name": "",
          "type": "bool"
        }
      ],
      "stateMutability": "nonpayable",
      "type": "function"
    },
    {
      "inputs": [
        {
          "internalType": "address",
          "name": "account",
          "type": "address"
        }
      ],
      "name": "balanceOf",
      "outputs": [
        {
          "internalType": "uint256",
          "name": "",
          "type": "uint256"
        }
      ],
      "stateMutability": "view",
      "type": "function"
    },
    {
      "inputs": [
        {
          "internalType": "uint256",
          "name": "amount",
          "type": "uint256"
        }
      ],
      "name": "burn",
      "outputs": [],
      "stateMutability": "nonpayable",
      "type": "function"
    },
    {
      "inputs": [],
      "name": "decimals",
      "outputs": [
        {
          "internalType": "uint8",
          "name": "",
          "type": "uint8"
        }
      ],
      "stateMutability": "view",
      "type": "function"
    },
    {
      "inputs": [
        {
          "internalType": "address",
          "name": "to",
          "type": "address"
        },
        {
          "internalType": "uint256",
          "name": "subtractedValue",
          "type": "uint256"
        }
      ],
      "name": "decreaseAllowance",
      "outputs": [
        {
          "internalType": "bool",
          "name": "",
          "type": "bool"
        }
      ],
      "stateMutability": "nonpayable",
      "type": "function"
    },
    {
      "inputs": [],
      "name": "hardCap",
      "outputs": [
        {
          "internalType": "uint256",
          "name": "",
          "type": "uint256"
        }
      ],
      "stateMutability": "view",
      "type": "function"
    },
    {
      "inputs": [
        {
          "internalType": "address",
          "name": "to",
          "type": "address"
        },
        {
          "internalType": "uint256",
          "name": "addedValue",
          "type": "uint256"
        }
      ],
      "name": "increaseAllowance",
      "outputs": [
        {
          "internalType": "bool",
          "name": "",
          "type": "bool"
        }
      ],
      "stateMutability": "nonpayable",
      "type": "function"
    },
    {
      "inputs": [],
      "name": "name",
      "outputs": [
        {
          "internalType": "string",
          "name": "",
          "type": "string"
        }
      ],
      "stateMutability": "view",
      "type": "function"
    },
    {
      "inputs": [],
      "name": "symbol",
      "outputs": [
        {
          "internalType": "string",
          "name": "",
          "type": "string"
        }
      ],
      "stateMutability": "view",
      "type": "function"
    },
    {
      "inputs": [],
      "name": "totalSupply",
      "outputs": [
        {
          "internalType": "uint256",
          "name": "",
          "type": "uint256"
        }
      ],
      "stateMutability": "view",
      "type": "function"
    },
    {
      "inputs": [
        {
          "internalType": "address",
          "name": "recipient",
          "type": "address"
        },
        {
          "internalType": "uint256",
          "name": "amount",
          "type": "uint256"
        }
      ],
      "name": "transfer",
      "outputs": [
        {
          "internalType": "bool",
          "name": "",
          "type": "bool"
        }
      ],
      "stateMutability": "nonpayable",
      "type": "function"
    },
    {
      "inputs": [
        {
          "internalType": "address",
          "name": "sender",
          "type": "address"
        },
        {
          "internalType": "address",
          "name": "recipient",
          "type": "address"
        },
        {
          "internalType": "uint256",
          "name": "amount",
          "type": "uint256"
        }
      ],
      "name": "transferFrom",
      "outputs": [
        {
          "internalType": "bool",
          "name": "",
          "type": "bool"
        }
      ],
      "stateMutability": "nonpayable",
      "type": "function"
    }
  ],
  "bytecode": "0x60806040526040518060400160405280601e81526020017f4d61784465782045786368616e6765204f6666696369616c20546f6b656e0000815250600390805190602001906200005192919062000237565b506040518060400160405280600481526020017f4d58445800000000000000000000000000000000000000000000000000000000815250600490805190602001906200009f92919062000237565b50348015620000ad57600080fd5b50620000e0336012600a620000c3919062000481565b633b9aca00620000d49190620004d2565b620000e660201b60201c565b620006a6565b600073ffffffffffffffffffffffffffffffffffffffff168273ffffffffffffffffffffffffffffffffffffffff16141562000159576040517f08c379a0000000000000000000000000000000000000000000000000000000008152600401620001509062000594565b60405180910390fd5b80600260008282546200016d9190620005b6565b92505081905550806000808473ffffffffffffffffffffffffffffffffffffffff1673ffffffffffffffffffffffffffffffffffffffff1681526020019081526020016000206000828254620001c49190620005b6565b925050819055508173ffffffffffffffffffffffffffffffffffffffff16600073ffffffffffffffffffffffffffffffffffffffff167fddf252ad1be2c89b69c2b068fc378daa952ba7f163c4a11628f55a4df523b3ef836040516200022b919062000624565b60405180910390a35050565b828054620002459062000670565b90600052602060002090601f016020900481019282620002695760008555620002b5565b82601f106200028457805160ff1916838001178555620002b5565b82800160010185558215620002b5579182015b82811115620002b457825182559160200191906001019062000297565b5b509050620002c49190620002c8565b5090565b5b80821115620002e3576000816000905550600101620002c9565b5090565b7f4e487b7100000000000000000000000000000000000000000000000000000000600052601160045260246000fd5b60008160011c9050919050565b6000808291508390505b600185111562000375578086048111156200034d576200034c620002e7565b5b60018516156200035d5780820291505b80810290506200036d8562000316565b94506200032d565b94509492505050565b60008262000390576001905062000463565b81620003a0576000905062000463565b8160018114620003b95760028114620003c457620003fa565b600191505062000463565b60ff841115620003d957620003d8620002e7565b5b8360020a915084821115620003f357620003f2620002e7565b5b5062000463565b5060208310610133831016604e8410600b8410161715620004345782820a9050838111156200042e576200042d620002e7565b5b62000463565b62000443848484600162000323565b925090508184048111156200045d576200045c620002e7565b5b81810290505b9392505050565b6000819050919050565b600060ff82169050919050565b60006200048e826200046a565b91506200049b8362000474565b9250620004ca7fffffffffffffffffffffffffffffffffffffffffffffffffffffffffffffffff84846200037e565b905092915050565b6000620004df826200046a565b9150620004ec836200046a565b9250817fffffffffffffffffffffffffffffffffffffffffffffffffffffffffffffffff0483118215151615620005285762000527620002e7565b5b828202905092915050565b600082825260208201905092915050565b7f45524332303a206d696e7420746f20746865207a65726f206164647265737300600082015250565b60006200057c601f8362000533565b9150620005898262000544565b602082019050919050565b60006020820190508181036000830152620005af816200056d565b9050919050565b6000620005c3826200046a565b9150620005d0836200046a565b9250827fffffffffffffffffffffffffffffffffffffffffffffffffffffffffffffffff03821115620006085762000607620002e7565b5b828201905092915050565b6200061e816200046a565b82525050565b60006020820190506200063b600083018462000613565b92915050565b7f4e487b7100000000000000000000000000000000000000000000000000000000600052602260045260246000fd5b600060028204905060018216806200068957607f821691505b60208210811415620006a0576200069f62000641565b5b50919050565b61193a80620006b66000396000f3fe608060405234801561001057600080fd5b50600436106100cf5760003560e01c806342966c681161008c578063a457c2d711610066578063a457c2d714610228578063a9059cbb14610258578063dd62ed3e14610288578063fb86a404146102b8576100cf565b806342966c68146101be57806370a08231146101da57806395d89b411461020a576100cf565b806306fdde03146100d4578063095ea7b3146100f257806318160ddd1461012257806323b872dd14610140578063313ce56714610170578063395093511461018e575b600080fd5b6100dc6102d6565b6040516100e99190610e71565b60405180910390f35b61010c60048036038101906101079190610f2c565b610368565b6040516101199190610f87565b60405180910390f35b61012a610386565b6040516101379190610fb1565b60405180910390f35b61015a60048036038101906101559190610fcc565b610390565b6040516101679190610f87565b60405180910390f35b610178610488565b604051610185919061103b565b60405180910390f35b6101a860048036038101906101a39190610f2c565b610491565b6040516101b59190610f87565b60405180910390f35b6101d860048036038101906101d39190611056565b61053d565b005b6101f460048036038101906101ef9190611083565b610551565b6040516102019190610fb1565b60405180910390f35b610212610599565b60405161021f9190610e71565b60405180910390f35b610242600480360381019061023d9190610f2c565b61062b565b60405161024f9190610f87565b60405180910390f35b610272600480360381019061026d9190610f2c565b610716565b60405161027f9190610f87565b60405180910390f35b6102a2600480360381019061029d91906110b0565b610734565b6040516102af9190610fb1565b60405180910390f35b6102c06107bb565b6040516102cd9190610fb1565b60405180910390f35b6060600380546102e59061111f565b80601f01602080910402602001604051908101604052809291908181526020018280546103119061111f565b801561035e5780601f106103335761010080835404028352916020019161035e565b820191906000526020600020905b81548152906001019060200180831161034157829003601f168201915b5050505050905090565b600061037c6103756107db565b84846107e3565b6001905092915050565b6000600254905090565b600061039d8484846109ae565b6000600160008673ffffffffffffffffffffffffffffffffffffffff1673ffffffffffffffffffffffffffffffffffffffff16815260200190815260200160002060006103e86107db565b73ffffffffffffffffffffffffffffffffffffffff1673ffffffffffffffffffffffffffffffffffffffff16815260200190815260200160002054905082811015610468576040517f08c379a000000000000000000000000000000000000000000000000000000000815260040161045f906111c3565b60405180910390fd5b61047c856104746107db565b8584036107e3565b60019150509392505050565b60006012905090565b600061053361049e6107db565b8484600160006104ac6107db565b73ffffffffffffffffffffffffffffffffffffffff1673ffffffffffffffffffffffffffffffffffffffff16815260200190815260200160002060008873ffffffffffffffffffffffffffffffffffffffff1673ffffffffffffffffffffffffffffffffffffffff1681526020019081526020016000205461052e9190611212565b6107e3565b6001905092915050565b61054e6105486107db565b82610c19565b50565b60008060008373ffffffffffffffffffffffffffffffffffffffff1673ffffffffffffffffffffffffffffffffffffffff168152602001908152602001600020549050919050565b6060600480546105a89061111f565b80601f01602080910402602001604051908101604052809291908181526020018280546105d49061111f565b80156106215780601f106105f657610100808354040283529160200191610621565b820191906000526020600020905b81548152906001019060200180831161060457829003601f168201915b5050505050905090565b6000806001600061063a6107db565b73ffffffffffffffffffffffffffffffffffffffff1673ffffffffffffffffffffffffffffffffffffffff16815260200190815260200160002060008573ffffffffffffffffffffffffffffffffffffffff1673ffffffffffffffffffffffffffffffffffffffff168152602001908152602001600020549050828110156106f7576040517f08c379a00000000000000000000000000000000000000000000000000000000081526004016106ee906112da565b60405180910390fd5b61070b6107026107db565b858584036107e3565b600191505092915050565b600061072a6107236107db565b84846109ae565b6001905092915050565b6000600160008473ffffffffffffffffffffffffffffffffffffffff1673ffffffffffffffffffffffffffffffffffffffff16815260200190815260200160002060008373ffffffffffffffffffffffffffffffffffffffff1673ffffffffffffffffffffffffffffffffffffffff16815260200190815260200160002054905092915050565b6012600a6107c9919061142d565b633b9aca006107d89190611478565b81565b600033905090565b600073ffffffffffffffffffffffffffffffffffffffff168373ffffffffffffffffffffffffffffffffffffffff161415610853576040517f08c379a000000000000000000000000000000000000000000000000000000000815260040161084a90611544565b60405180910390fd5b600073ffffffffffffffffffffffffffffffffffffffff168273ffffffffffffffffffffffffffffffffffffffff1614156108c3576040517f08c379a00000000000000000000000000000000000000000000000000000000081526004016108ba906115d6565b60405180910390fd5b80600160008573ffffffffffffffffffffffffffffffffffffffff1673ffffffffffffffffffffffffffffffffffffffff16815260200190815260200160002060008473ffffffffffffffffffffffffffffffffffffffff1673ffffffffffffffffffffffffffffffffffffffff168152602001908152602001600020819055508173ffffffffffffffffffffffffffffffffffffffff168373ffffffffffffffffffffffffffffffffffffffff167f8c5be1e5ebec7d5bd14f71427d1e84f3dd0314c0f7b2291e5b200ac8c7c3b925836040516109a19190610fb1565b60405180910390a3505050565b600073ffffffffffffffffffffffffffffffffffffffff168373ffffffffffffffffffffffffffffffffffffffff161415610a1e576040517f08c379a0000000000000000000000000000000000000000000000000000000008152600401610a1590611668565b60405180910390fd5b600073ffffffffffffffffffffffffffffffffffffffff168273ffffffffffffffffffffffffffffffffffffffff161415610a8e576040517f08c379a0000000000000000000000000000000000000000000000000000000008152600401610a85906116fa565b60405180910390fd5b60008060008573ffffffffffffffffffffffffffffffffffffffff1673ffffffffffffffffffffffffffffffffffffffff16815260200190815260200160002054905081811015610b14576040517f08c379a0000000000000000000000000000000000000000000000000000000008152600401610b0b9061178c565b60405180910390fd5b8181036000808673ffffffffffffffffffffffffffffffffffffffff1673ffffffffffffffffffffffffffffffffffffffff16815260200190815260200160002081905550816000808573ffffffffffffffffffffffffffffffffffffffff1673ffffffffffffffffffffffffffffffffffffffff1681526020019081526020016000206000828254610ba79190611212565b925050819055508273ffffffffffffffffffffffffffffffffffffffff168473ffffffffffffffffffffffffffffffffffffffff167fddf252ad1be2c89b69c2b068fc378daa952ba7f163c4a11628f55a4df523b3ef84604051610c0b9190610fb1565b60405180910390a350505050565b600073ffffffffffffffffffffffffffffffffffffffff168273ffffffffffffffffffffffffffffffffffffffff161415610c89576040517f08c379a0000000000000000000000000000000000000000000000000000000008152600401610c809061181e565b60405180910390fd5b60008060008473ffffffffffffffffffffffffffffffffffffffff1673ffffffffffffffffffffffffffffffffffffffff16815260200190815260200160002054905081811015610d0f576040517f08c379a0000000000000000000000000000000000000000000000000000000008152600401610d06906118b0565b60405180910390fd5b8181036000808573ffffffffffffffffffffffffffffffffffffffff1673ffffffffffffffffffffffffffffffffffffffff168152602001908152602001600020819055508160026000828254610d6691906118d0565b92505081905550600073ffffffffffffffffffffffffffffffffffffffff168373ffffffffffffffffffffffffffffffffffffffff167fddf252ad1be2c89b69c2b068fc378daa952ba7f163c4a11628f55a4df523b3ef84604051610dcb9190610fb1565b60405180910390a3505050565b600081519050919050565b600082825260208201905092915050565b60005b83811015610e12578082015181840152602081019050610df7565b83811115610e21576000848401525b50505050565b6000601f19601f8301169050919050565b6000610e4382610dd8565b610e4d8185610de3565b9350610e5d818560208601610df4565b610e6681610e27565b840191505092915050565b60006020820190508181036000830152610e8b8184610e38565b905092915050565b600080fd5b600073ffffffffffffffffffffffffffffffffffffffff82169050919050565b6000610ec382610e98565b9050919050565b610ed381610eb8565b8114610ede57600080fd5b50565b600081359050610ef081610eca565b92915050565b6000819050919050565b610f0981610ef6565b8114610f1457600080fd5b50565b600081359050610f2681610f00565b92915050565b60008060408385031215610f4357610f42610e93565b5b6000610f5185828601610ee1565b9250506020610f6285828601610f17565b9150509250929050565b60008115159050919050565b610f8181610f6c565b82525050565b6000602082019050610f9c6000830184610f78565b92915050565b610fab81610ef6565b82525050565b6000602082019050610fc66000830184610fa2565b92915050565b600080600060608486031215610fe557610fe4610e93565b5b6000610ff386828701610ee1565b935050602061100486828701610ee1565b925050604061101586828701610f17565b9150509250925092565b600060ff82169050919050565b6110358161101f565b82525050565b6000602082019050611050600083018461102c565b92915050565b60006020828403121561106c5761106b610e93565b5b600061107a84828501610f17565b91505092915050565b60006020828403121561109957611098610e93565b5b60006110a784828501610ee1565b91505092915050565b600080604083850312156110c7576110c6610e93565b5b60006110d585828601610ee1565b92505060206110e685828601610ee1565b9150509250929050565b7f4e487b7100000000000000000000000000000000000000000000000000000000600052602260045260246000fd5b6000600282049050600182168061113757607f821691505b6020821081141561114b5761114a6110f0565b5b50919050565b7f45524332303a207472616e7366657220616d6f756e742065786365656473206160008201527f6c6c6f77616e6365000000000000000000000000000000000000000000000000602082015250565b60006111ad602883610de3565b91506111b882611151565b604082019050919050565b600060208201905081810360008301526111dc816111a0565b9050919050565b7f4e487b7100000000000000000000000000000000000000000000000000000000600052601160045260246000fd5b600061121d82610ef6565b915061122883610ef6565b9250827fffffffffffffffffffffffffffffffffffffffffffffffffffffffffffffffff0382111561125d5761125c6111e3565b5b828201905092915050565b7f45524332303a2064656372656173656420616c6c6f77616e63652062656c6f7760008201527f207a65726f000000000000000000000000000000000000000000000000000000602082015250565b60006112c4602583610de3565b91506112cf82611268565b604082019050919050565b600060208201905081810360008301526112f3816112b7565b9050919050565b60008160011c9050919050565b6000808291508390505b60018511156113515780860481111561132d5761132c6111e3565b5b600185161561133c5780820291505b808102905061134a856112fa565b9450611311565b94509492505050565b60008261136a5760019050611426565b816113785760009050611426565b816001811461138e5760028114611398576113c7565b6001915050611426565b60ff8411156113aa576113a96111e3565b5b8360020a9150848211156113c1576113c06111e3565b5b50611426565b5060208310610133831016604e8410600b84101617156113fc5782820a9050838111156113f7576113f66111e3565b5b611426565b6114098484846001611307565b925090508184048111156114205761141f6111e3565b5b81810290505b9392505050565b600061143882610ef6565b91506114438361101f565b92506114707fffffffffffffffffffffffffffffffffffffffffffffffffffffffffffffffff848461135a565b905092915050565b600061148382610ef6565b915061148e83610ef6565b9250817fffffffffffffffffffffffffffffffffffffffffffffffffffffffffffffffff04831182151516156114c7576114c66111e3565b5b828202905092915050565b7f45524332303a20617070726f76652066726f6d20746865207a65726f2061646460008201527f7265737300000000000000000000000000000000000000000000000000000000602082015250565b600061152e602483610de3565b9150611539826114d2565b604082019050919050565b6000602082019050818103600083015261155d81611521565b9050919050565b7f45524332303a20617070726f766520746f20746865207a65726f20616464726560008201527f7373000000000000000000000000000000000000000000000000000000000000602082015250565b60006115c0602283610de3565b91506115cb82611564565b604082019050919050565b600060208201905081810360008301526115ef816115b3565b9050919050565b7f45524332303a207472616e736665722066726f6d20746865207a65726f20616460008201527f6472657373000000000000000000000000000000000000000000000000000000602082015250565b6000611652602583610de3565b915061165d826115f6565b604082019050919050565b6000602082019050818103600083015261168181611645565b9050919050565b7f45524332303a207472616e7366657220746f20746865207a65726f206164647260008201527f6573730000000000000000000000000000000000000000000000000000000000602082015250565b60006116e4602383610de3565b91506116ef82611688565b604082019050919050565b60006020820190508181036000830152611713816116d7565b9050919050565b7f45524332303a207472616e7366657220616d6f756e742065786365656473206260008201527f616c616e63650000000000000000000000000000000000000000000000000000602082015250565b6000611776602683610de3565b91506117818261171a565b604082019050919050565b600060208201905081810360008301526117a581611769565b9050919050565b7f45524332303a206275726e2066726f6d20746865207a65726f2061646472657360008201527f7300000000000000000000000000000000000000000000000000000000000000602082015250565b6000611808602183610de3565b9150611813826117ac565b604082019050919050565b60006020820190508181036000830152611837816117fb565b9050919050565b7f45524332303a206275726e20616d6f756e7420657863656564732062616c616e60008201527f6365000000000000000000000000000000000000000000000000000000000000602082015250565b600061189a602283610de3565b91506118a58261183e565b604082019050919050565b600060208201905081810360008301526118c98161188d565b9050919050565b60006118db82610ef6565b91506118e683610ef6565b9250828210156118f9576118f86111e3565b5b82820390509291505056fea2646970667358221220e8541716473d464cf494ad6f8fd309b23ad3626180910078681f1a524b73456164736f6c63430008090033",
  "linkReferences": {},
  "deployedLinkReferences": {}
}