{
  "_format": "hh-sol-artifact-1",
  "contractName": "Presale",
  "sourceName": "contracts/Presale.sol",
  "abi": [
    {
      "inputs": [],
      "stateMutability": "nonpayable",
      "type": "constructor"
    },
    {
      "anonymous": false,
      "inputs": [
        {
          "indexed": true,
          "internalType": "address",
          "name": "user",
          "type": "address"
        },
        {
          "indexed": true,
          "internalType": "uint256",
          "name": "tokensBought",
          "type": "uint256"
        },
        {
          "indexed": true,
          "internalType": "address",
          "name": "purchaseToken",
          "type": "address"
        },
        {
          "indexed": false,
          "internalType": "uint256",
          "name": "amountPaid",
          "type": "uint256"
        },
        {
          "indexed": false,
          "internalType": "uint256",
          "name": "currentStep",
          "type": "uint256"
        },
        {
          "indexed": false,
          "internalType": "uint256",
          "name": "timestamp",
          "type": "uint256"
        }
      ],
      "name": "TokensBought",
      "type": "event"
    },
    {
      "anonymous": false,
      "inputs": [
        {
          "indexed": true,
          "internalType": "address",
          "name": "user",
          "type": "address"
        },
        {
          "indexed": false,
          "internalType": "uint256",
          "name": "amount",
          "type": "uint256"
        },
        {
          "indexed": false,
          "internalType": "uint256",
          "name": "timestamp",
          "type": "uint256"
        }
      ],
      "name": "TokensClaimed",
      "type": "event"
    },
    {
      "inputs": [],
      "name": "USDTAddr",
      "outputs": [
        {
          "internalType": "contract IERC20",
          "name": "",
          "type": "address"
        }
      ],
      "stateMutability": "view",
      "type": "function"
    },
    {
      "inputs": [],
      "name": "aggregatorInterface",
      "outputs": [
        {
          "internalType": "contract Aggregator",
          "name": "",
          "type": "address"
        }
      ],
      "stateMutability": "view",
      "type": "function"
    },
    {
      "inputs": [
        {
          "internalType": "uint256",
          "name": "amount",
          "type": "uint256"
        }
      ],
      "name": "buyWithETH",
      "outputs": [
        {
          "internalType": "bool",
          "name": "",
          "type": "bool"
        }
      ],
      "stateMutability": "payable",
      "type": "function"
    },
    {
      "inputs": [
        {
          "internalType": "uint256",
          "name": "amount",
          "type": "uint256"
        }
      ],
      "name": "buyWithUSDT",
      "outputs": [
        {
          "internalType": "bool",
          "name": "",
          "type": "bool"
        }
      ],
      "stateMutability": "nonpayable",
      "type": "function"
    },
    {
      "inputs": [
        {
          "internalType": "uint256",
          "name": "_amount",
          "type": "uint256"
        }
      ],
      "name": "calculatePaymentETH",
      "outputs": [
        {
          "internalType": "uint256",
          "name": "",
          "type": "uint256"
        },
        {
          "internalType": "uint256",
          "name": "",
          "type": "uint256"
        }
      ],
      "stateMutability": "view",
      "type": "function"
    },
    {
      "inputs": [
        {
          "internalType": "uint256",
          "name": "_amount",
          "type": "uint256"
        }
      ],
      "name": "calculatePaymentUSDT",
      "outputs": [
        {
          "internalType": "uint256",
          "name": "",
          "type": "uint256"
        },
        {
          "internalType": "uint256",
          "name": "",
          "type": "uint256"
        }
      ],
      "stateMutability": "view",
      "type": "function"
    },
    {
      "inputs": [],
      "name": "claim",
      "outputs": [
        {
          "internalType": "bool",
          "name": "",
          "type": "bool"
        }
      ],
      "stateMutability": "nonpayable",
      "type": "function"
    },
    {
      "inputs": [],
      "name": "currentStep",
      "outputs": [
        {
          "internalType": "uint256",
          "name": "",
          "type": "uint256"
        }
      ],
      "stateMutability": "view",
      "type": "function"
    },
    {
      "inputs": [],
      "name": "decimalToken",
      "outputs": [
        {
          "internalType": "uint256",
          "name": "",
          "type": "uint256"
        }
      ],
      "stateMutability": "view",
      "type": "function"
    },
    {
      "inputs": [],
      "name": "decimalUSDT",
      "outputs": [
        {
          "internalType": "uint256",
          "name": "",
          "type": "uint256"
        }
      ],
      "stateMutability": "view",
      "type": "function"
    },
    {
      "inputs": [],
      "name": "getLatestPrice",
      "outputs": [
        {
          "internalType": "uint256",
          "name": "",
          "type": "uint256"
        }
      ],
      "stateMutability": "view",
      "type": "function"
    },
    {
      "inputs": [
        {
          "internalType": "address",
          "name": "",
          "type": "address"
        }
      ],
      "name": "hasClaimed",
      "outputs": [
        {
          "internalType": "bool",
          "name": "",
          "type": "bool"
        }
      ],
      "stateMutability": "view",
      "type": "function"
    },
    {
      "inputs": [],
      "name": "maxForsale",
      "outputs": [
        {
          "internalType": "uint256",
          "name": "",
          "type": "uint256"
        }
      ],
      "stateMutability": "view",
      "type": "function"
    },
    {
      "inputs": [],
      "name": "owner",
      "outputs": [
        {
          "internalType": "address payable",
          "name": "",
          "type": "address"
        }
      ],
      "stateMutability": "view",
      "type": "function"
    },
    {
      "inputs": [
        {
          "internalType": "address",
          "name": "_addr",
          "type": "address"
        }
      ],
      "name": "setOwner",
      "outputs": [],
      "stateMutability": "nonpayable",
      "type": "function"
    },
    {
      "inputs": [
        {
          "internalType": "uint256",
          "name": "_stage",
          "type": "uint256"
        }
      ],
      "name": "setTimeStage",
      "outputs": [],
      "stateMutability": "nonpayable",
      "type": "function"
    },
    {
      "inputs": [
        {
          "internalType": "address",
          "name": "_addr",
          "type": "address"
        }
      ],
      "name": "setTokenAddr",
      "outputs": [],
      "stateMutability": "nonpayable",
      "type": "function"
    },
    {
      "inputs": [],
      "name": "timeStage",
      "outputs": [
        {
          "internalType": "uint256",
          "name": "",
          "type": "uint256"
        }
      ],
      "stateMutability": "view",
      "type": "function"
    },
    {
      "inputs": [],
      "name": "tokenAddr",
      "outputs": [
        {
          "internalType": "address",
          "name": "",
          "type": "address"
        }
      ],
      "stateMutability": "view",
      "type": "function"
    },
    {
      "inputs": [
        {
          "internalType": "uint256",
          "name": "",
          "type": "uint256"
        }
      ],
      "name": "token_amount",
      "outputs": [
        {
          "internalType": "uint256",
          "name": "",
          "type": "uint256"
        }
      ],
      "stateMutability": "view",
      "type": "function"
    },
    {
      "inputs": [
        {
          "internalType": "uint256",
          "name": "",
          "type": "uint256"
        }
      ],
      "name": "token_price",
      "outputs": [
        {
          "internalType": "uint256",
          "name": "",
          "type": "uint256"
        }
      ],
      "stateMutability": "view",
      "type": "function"
    },
    {
      "inputs": [],
      "name": "totalETHRaised",
      "outputs": [
        {
          "internalType": "uint256",
          "name": "",
          "type": "uint256"
        }
      ],
      "stateMutability": "view",
      "type": "function"
    },
    {
      "inputs": [],
      "name": "totalFundRaised",
      "outputs": [
        {
          "internalType": "uint256",
          "name": "",
          "type": "uint256"
        }
      ],
      "stateMutability": "view",
      "type": "function"
    },
    {
      "inputs": [],
      "name": "totalTokenBuyer",
      "outputs": [
        {
          "internalType": "uint256",
          "name": "",
          "type": "uint256"
        }
      ],
      "stateMutability": "view",
      "type": "function"
    },
    {
      "inputs": [],
      "name": "totalTokenClaimed",
      "outputs": [
        {
          "internalType": "uint256",
          "name": "",
          "type": "uint256"
        }
      ],
      "stateMutability": "view",
      "type": "function"
    },
    {
      "inputs": [],
      "name": "totalTokensSold",
      "outputs": [
        {
          "internalType": "uint256",
          "name": "",
          "type": "uint256"
        }
      ],
      "stateMutability": "view",
      "type": "function"
    },
    {
      "inputs": [],
      "name": "totalUSDTRaised",
      "outputs": [
        {
          "internalType": "uint256",
          "name": "",
          "type": "uint256"
        }
      ],
      "stateMutability": "view",
      "type": "function"
    },
    {
      "inputs": [
        {
          "internalType": "address",
          "name": "",
          "type": "address"
        }
      ],
      "name": "userBought",
      "outputs": [
        {
          "internalType": "uint256",
          "name": "",
          "type": "uint256"
        }
      ],
      "stateMutability": "view",
      "type": "function"
    }
  ],
  "bytecode": "0x6080604052630bebc2006001556000600760006101000a81548173ffffffffffffffffffffffffffffffffffffffff021916908373ffffffffffffffffffffffffffffffffffffffff16021790555060006008556000600955620f4240600a55670de0b6b3a7640000600b5573dac17f958d2ee523a2206206994597c13d831ec7600c60006101000a81548173ffffffffffffffffffffffffffffffffffffffff021916908373ffffffffffffffffffffffffffffffffffffffff160217905550735f4ec3df9cbd43714fe2740f5e3616155c5b8419600d60006101000a81548173ffffffffffffffffffffffffffffffffffffffff021916908373ffffffffffffffffffffffffffffffffffffffff16021790555060405180610140016040528062e4e1c063ffffffff1681526020016301c9c38063ffffffff1681526020016302faf08063ffffffff16815260200163042c1d8063ffffffff16815260200163055d4a8063ffffffff16815260200163068e778063ffffffff1681526020016307bfa48063ffffffff1681526020016308f0d18063ffffffff168152602001630a6e49c063ffffffff168152602001630bebc20063ffffffff16815250600e90600a620001d0929190620002a6565b50604051806101400160405280600160ff168152602001600260ff168152602001600460ff168152602001600860ff168152602001601460ff168152602001601e60ff168152602001602860ff168152602001603260ff168152602001603c60ff168152602001605060ff16815250601890600a62000251929190620002f3565b503480156200025f57600080fd5b50336000806101000a81548173ffffffffffffffffffffffffffffffffffffffff021916908373ffffffffffffffffffffffffffffffffffffffff1602179055506200035c565b82600a8101928215620002e0579160200282015b82811115620002df578251829063ffffffff16905591602001919060010190620002ba565b5b509050620002ef91906200033d565b5090565b82600a81019282156200032a579160200282015b8281111562000329578251829060ff1690559160200191906001019062000307565b5b5090506200033991906200033d565b5090565b5b80821115620003585760008160009055506001016200033e565b5090565b61292a806200036c6000396000f3fe6080604052600436106101b75760003560e01c80635fbe4d1d116100ec5780639030e40f1161008a578063ab03c7a911610064578063ab03c7a91461061e578063c49cc6451461065c578063c4a717cf14610687578063f100b98a146106c4576101b7565b80639030e40f1461058657806394dc9cf3146105b1578063a7c60160146105e1576101b7565b80636c34acdc116100c65780636c34acdc146104c857806373b2e80e146104f35780638da5cb5b146105305780638e15f4731461055b576101b7565b80635fbe4d1d1461044757806363b20117146104725780636553d7341461049d576101b7565b80632818553f1161015957806334262ca41161013357806334262ca4146103885780634e71d92d146103b35780635a08440a146103de5780635bc34f711461041c576101b7565b80632818553f146102f757806328f5c7b3146103345780632ebd1e281461035f576101b7565b80631d25bd4e116101955780631d25bd4e1461023b5780631e0fbd49146102665780631fba39f61461028f57806324128ee4146102ba576101b7565b806305d12c6f146101bc57806308c89b6d146101e757806313af403514610212575b600080fd5b3480156101c857600080fd5b506101d16106ef565b6040516101de9190611b78565b60405180910390f35b3480156101f357600080fd5b506101fc610715565b6040516102099190611bac565b60405180910390f35b34801561021e57600080fd5b5061023960048036038101906102349190611c0a565b61071b565b005b34801561024757600080fd5b506102506107ec565b60405161025d9190611bac565b60405180910390f35b34801561027257600080fd5b5061028d60048036038101906102889190611c63565b6107f2565b005b34801561029b57600080fd5b506102a46109cf565b6040516102b19190611bac565b60405180910390f35b3480156102c657600080fd5b506102e160048036038101906102dc9190611c63565b6109d5565b6040516102ee9190611bac565b60405180910390f35b34801561030357600080fd5b5061031e60048036038101906103199190611c63565b6109f0565b60405161032b9190611bac565b60405180910390f35b34801561034057600080fd5b50610349610a0b565b6040516103569190611bac565b60405180910390f35b34801561036b57600080fd5b5061038660048036038101906103819190611c0a565b610a11565b005b34801561039457600080fd5b5061039d610b1d565b6040516103aa9190611bac565b60405180910390f35b3480156103bf57600080fd5b506103c8610b23565b6040516103d59190611cab565b60405180910390f35b3480156103ea57600080fd5b5061040560048036038101906104009190611c63565b610ec6565b604051610413929190611cc6565b60405180910390f35b34801561042857600080fd5b50610431611145565b60405161043e9190611bac565b60405180910390f35b34801561045357600080fd5b5061045c61114b565b6040516104699190611cfe565b60405180910390f35b34801561047e57600080fd5b50610487611171565b6040516104949190611bac565b60405180910390f35b3480156104a957600080fd5b506104b2611177565b6040516104bf9190611bac565b60405180910390f35b3480156104d457600080fd5b506104dd61117d565b6040516104ea9190611bac565b60405180910390f35b3480156104ff57600080fd5b5061051a60048036038101906105159190611c0a565b611183565b6040516105279190611cab565b60405180910390f35b34801561053c57600080fd5b506105456111a3565b6040516105529190611d3a565b60405180910390f35b34801561056757600080fd5b506105706111c7565b60405161057d9190611bac565b60405180910390f35b34801561059257600080fd5b5061059b61128a565b6040516105a89190611bac565b60405180910390f35b6105cb60048036038101906105c69190611c63565b6112d0565b6040516105d89190611cab565b60405180910390f35b3480156105ed57600080fd5b5061060860048036038101906106039190611c63565b611515565b6040516106159190611cab565b60405180910390f35b34801561062a57600080fd5b5061064560048036038101906106409190611c63565b61196d565b604051610653929190611cc6565b60405180910390f35b34801561066857600080fd5b506106716119c1565b60405161067e9190611d76565b60405180910390f35b34801561069357600080fd5b506106ae60048036038101906106a99190611c0a565b6119e7565b6040516106bb9190611bac565b60405180910390f35b3480156106d057600080fd5b506106d96119ff565b6040516106e69190611bac565b60405180910390f35b600c60009054906101000a900473ffffffffffffffffffffffffffffffffffffffff1681565b60035481565b3373ffffffffffffffffffffffffffffffffffffffff1660008054906101000a900473ffffffffffffffffffffffffffffffffffffffff1673ffffffffffffffffffffffffffffffffffffffff16146107a9576040517f08c379a00000000000000000000000000000000000000000000000000000000081526004016107a090611dee565b60405180910390fd5b806000806101000a81548173ffffffffffffffffffffffffffffffffffffffff021916908373ffffffffffffffffffffffffffffffffffffffff16021790555050565b60055481565b3373ffffffffffffffffffffffffffffffffffffffff1660008054906101000a900473ffffffffffffffffffffffffffffffffffffffff1673ffffffffffffffffffffffffffffffffffffffff1614610880576040517f08c379a000000000000000000000000000000000000000000000000000000000815260040161087790611dee565b60405180910390fd5b600281108015610891575080600954105b61089a57600080fd5b60018114156109c557600073ffffffffffffffffffffffffffffffffffffffff16600760009054906101000a900473ffffffffffffffffffffffffffffffffffffffff1673ffffffffffffffffffffffffffffffffffffffff16141580156109bb5750600b5460025461090d9190611e3d565b600760009054906101000a900473ffffffffffffffffffffffffffffffffffffffff1673ffffffffffffffffffffffffffffffffffffffff166370a08231306040518263ffffffff1660e01b81526004016109689190611cfe565b60206040518083038186803b15801561098057600080fd5b505afa158015610994573d6000803e3d6000fd5b505050506040513d601f19601f820116820180604052508101906109b89190611eac565b10155b6109c457600080fd5b5b8060098190555050565b600a5481565b600e81600a81106109e557600080fd5b016000915090505481565b601881600a8110610a0057600080fd5b016000915090505481565b60045481565b3373ffffffffffffffffffffffffffffffffffffffff1660008054906101000a900473ffffffffffffffffffffffffffffffffffffffff1673ffffffffffffffffffffffffffffffffffffffff1614610a9f576040517f08c379a0000000000000000000000000000000000000000000000000000000008152600401610a9690611dee565b60405180910390fd5b600073ffffffffffffffffffffffffffffffffffffffff168173ffffffffffffffffffffffffffffffffffffffff161415610ad957600080fd5b80600760006101000a81548173ffffffffffffffffffffffffffffffffffffffff021916908373ffffffffffffffffffffffffffffffffffffffff16021790555050565b60065481565b6000600160095414610b6a576040517f08c379a0000000000000000000000000000000000000000000000000000000008152600401610b6190611f25565b60405180910390fd5b602360003373ffffffffffffffffffffffffffffffffffffffff1673ffffffffffffffffffffffffffffffffffffffff16815260200190815260200160002060009054906101000a900460ff1615610bf7576040517f08c379a0000000000000000000000000000000000000000000000000000000008152600401610bee90611f91565b60405180910390fd5b6000602260003373ffffffffffffffffffffffffffffffffffffffff1673ffffffffffffffffffffffffffffffffffffffff1681526020019081526020016000205411610c79576040517f08c379a0000000000000000000000000000000000000000000000000000000008152600401610c7090611ffd565b60405180910390fd5b6001602360003373ffffffffffffffffffffffffffffffffffffffff1673ffffffffffffffffffffffffffffffffffffffff16815260200190815260200160002060006101000a81548160ff021916908315150217905550602260003373ffffffffffffffffffffffffffffffffffffffff1673ffffffffffffffffffffffffffffffffffffffff1681526020019081526020016000205460066000828254610d22919061201d565b925050819055506000600b54602260003373ffffffffffffffffffffffffffffffffffffffff1673ffffffffffffffffffffffffffffffffffffffff16815260200190815260200160002054610d789190611e3d565b90506000600760009054906101000a900473ffffffffffffffffffffffffffffffffffffffff1673ffffffffffffffffffffffffffffffffffffffff1663a9059cbb33846040518363ffffffff1660e01b8152600401610dd9929190612073565b602060405180830381600087803b158015610df357600080fd5b505af1158015610e07573d6000803e3d6000fd5b505050506040513d601f19601f82011682018060405250810190610e2b91906120c8565b905080610e6d576040517f08c379a0000000000000000000000000000000000000000000000000000000008152600401610e6490612141565b60405180910390fd5b3373ffffffffffffffffffffffffffffffffffffffff167f9923b4306c6c030f2bdfbf156517d5983b87e15b96176da122cd4f2effa4ba7b8342604051610eb5929190611cc6565b60405180910390a260019250505090565b6000806103e88310158015610eea5750600254600154610ee69190612161565b8311155b610f29576040517f08c379a0000000000000000000000000000000000000000000000000000000008152600401610f20906121e1565b60405180910390fd5b6000806008549050600e600854600a8110610f4757610f46612201565b5b015460025486610f57919061201d565b106110fb5760008060085490505b600a811015610fbe576009811480610f9e5750600e81600a8110610f8c57610f8b612201565b5b015460025488610f9c919061201d565b105b15610fab57809250610fbe565b8080610fb690612230565b915050610f65565b50600060085490505b8281116110f45760085481141561100257600254600e82600a8110610fef57610fee612201565b5b0154610ffb9190612161565b915061109a565b8281101561105357600e6001826110199190612161565b600a811061102a57611029612201565b5b0154600e82600a81106110405761103f612201565b5b015461104c9190612161565b9150611099565b8281141561109857600e60018261106a9190612161565b600a811061107b5761107a612201565b5b01546002548861108b919061201d565b6110959190612161565b91505b5b5b6064600a54601883600a81106110b3576110b2612201565b5b0154846110c09190611e3d565b6110ca9190611e3d565b6110d491906122a8565b846110df919061201d565b935080806110ec90612230565b915050610fc7565b5050611138565b6064600a54601883600a811061111457611113612201565b5b0154876111219190611e3d565b61112b9190611e3d565b61113591906122a8565b91505b8181935093505050915091565b60085481565b600760009054906101000a900473ffffffffffffffffffffffffffffffffffffffff1681565b60025481565b60015481565b600b5481565b60236020528060005260406000206000915054906101000a900460ff1681565b60008054906101000a900473ffffffffffffffffffffffffffffffffffffffff1681565b600080600d60009054906101000a900473ffffffffffffffffffffffffffffffffffffffff1673ffffffffffffffffffffffffffffffffffffffff1663feaf968c6040518163ffffffff1660e01b815260040160a06040518083038186803b15801561123257600080fd5b505afa158015611246573d6000803e3d6000fd5b505050506040513d601f19601f8201168201806040525081019061126a9190612351565b5050509150506402540be4008161128191906123cc565b90508091505090565b6000600b546112976111c7565b6004546112a49190611e3d565b6112ae91906122a8565b64e8d4a510006003546112c19190611e3d565b6112cb919061201d565b905090565b60008060095414611316576040517f08c379a000000000000000000000000000000000000000000000000000000000815260040161130d9061252f565b60405180910390fd5b60006113218361196d565b6008600082919050558192505050606460628261133e9190611e3d565b61134891906122a8565b3411611389576040517f08c379a00000000000000000000000000000000000000000000000000000000081526004016113809061259b565b60405180910390fd5b6000602260003373ffffffffffffffffffffffffffffffffffffffff1673ffffffffffffffffffffffffffffffffffffffff1681526020019081526020016000205414156113ec576001600560008282546113e4919061201d565b925050819055505b82602260003373ffffffffffffffffffffffffffffffffffffffff1673ffffffffffffffffffffffffffffffffffffffff168152602001908152602001600020600082825461143b919061201d565b925050819055508260026000828254611454919061201d565b92505081905550346004600082825461146d919061201d565b9250508190555061149e60008054906101000a900473ffffffffffffffffffffffffffffffffffffffff1634611a05565b600073ffffffffffffffffffffffffffffffffffffffff16833373ffffffffffffffffffffffffffffffffffffffff167f4d8aead3491b7eba4b5c7a65fc17e493b9e63f9e433522fc5f6a85a168fc9d368460085442604051611503939291906125bb565b60405180910390a46001915050919050565b6000806009541461155b576040517f08c379a00000000000000000000000000000000000000000000000000000000081526004016115529061252f565b60405180910390fd5b600061156683610ec6565b60086000829190505581925050506000600c60009054906101000a900473ffffffffffffffffffffffffffffffffffffffff1673ffffffffffffffffffffffffffffffffffffffff1663dd62ed3e33306040518363ffffffff1660e01b81526004016115d39291906125f2565b60206040518083038186803b1580156115eb57600080fd5b505afa1580156115ff573d6000803e3d6000fd5b505050506040513d601f19601f820116820180604052508101906116239190611eac565b905080821115611668576040517f08c379a000000000000000000000000000000000000000000000000000000000815260040161165f9061268d565b60405180910390fd5b6000600c60009054906101000a900473ffffffffffffffffffffffffffffffffffffffff1673ffffffffffffffffffffffffffffffffffffffff163360008054906101000a900473ffffffffffffffffffffffffffffffffffffffff16856040516024016116d8939291906126ad565b6040516020818303038152906040527f23b872dd000000000000000000000000000000000000000000000000000000007bffffffffffffffffffffffffffffffffffffffffffffffffffffffff19166020820180517bffffffffffffffffffffffffffffffffffffffffffffffffffffffff8381831617835250505050604051611762919061275e565b6000604051808303816000865af19150503d806000811461179f576040519150601f19603f3d011682016040523d82523d6000602084013e6117a4565b606091505b50509050806117e8576040517f08c379a00000000000000000000000000000000000000000000000000000000081526004016117df906127c1565b60405180910390fd5b6000602260003373ffffffffffffffffffffffffffffffffffffffff1673ffffffffffffffffffffffffffffffffffffffff16815260200190815260200160002054141561184b57600160056000828254611843919061201d565b925050819055505b84602260003373ffffffffffffffffffffffffffffffffffffffff1673ffffffffffffffffffffffffffffffffffffffff168152602001908152602001600020600082825461189a919061201d565b9250508190555084600260008282546118b3919061201d565b9250508190555082600360008282546118cc919061201d565b92505081905550600c60009054906101000a900473ffffffffffffffffffffffffffffffffffffffff1673ffffffffffffffffffffffffffffffffffffffff16853373ffffffffffffffffffffffffffffffffffffffff167f4d8aead3491b7eba4b5c7a65fc17e493b9e63f9e433522fc5f6a85a168fc9d368660085442604051611959939291906125bb565b60405180910390a460019350505050919050565b60008060008061197c85610ec6565b8093508192505050600061198e6111c7565b6c0c9f2c9cd04674edea40000000836119a79190611e3d565b6119b191906122a8565b9050808394509450505050915091565b600d60009054906101000a900473ffffffffffffffffffffffffffffffffffffffff1681565b60226020528060005260406000206000915090505481565b60095481565b80471015611a48576040517f08c379a0000000000000000000000000000000000000000000000000000000008152600401611a3f9061282d565b60405180910390fd5b60008273ffffffffffffffffffffffffffffffffffffffff1682604051611a6e90612873565b60006040518083038185875af1925050503d8060008114611aab576040519150601f19603f3d011682016040523d82523d6000602084013e611ab0565b606091505b5050905080611af4576040517f08c379a0000000000000000000000000000000000000000000000000000000008152600401611aeb906128d4565b60405180910390fd5b505050565b600073ffffffffffffffffffffffffffffffffffffffff82169050919050565b6000819050919050565b6000611b3e611b39611b3484611af9565b611b19565b611af9565b9050919050565b6000611b5082611b23565b9050919050565b6000611b6282611b45565b9050919050565b611b7281611b57565b82525050565b6000602082019050611b8d6000830184611b69565b92915050565b6000819050919050565b611ba681611b93565b82525050565b6000602082019050611bc16000830184611b9d565b92915050565b600080fd5b6000611bd782611af9565b9050919050565b611be781611bcc565b8114611bf257600080fd5b50565b600081359050611c0481611bde565b92915050565b600060208284031215611c2057611c1f611bc7565b5b6000611c2e84828501611bf5565b91505092915050565b611c4081611b93565b8114611c4b57600080fd5b50565b600081359050611c5d81611c37565b92915050565b600060208284031215611c7957611c78611bc7565b5b6000611c8784828501611c4e565b91505092915050565b60008115159050919050565b611ca581611c90565b82525050565b6000602082019050611cc06000830184611c9c565b92915050565b6000604082019050611cdb6000830185611b9d565b611ce86020830184611b9d565b9392505050565b611cf881611bcc565b82525050565b6000602082019050611d136000830184611cef565b92915050565b6000611d2482611af9565b9050919050565b611d3481611d19565b82525050565b6000602082019050611d4f6000830184611d2b565b92915050565b6000611d6082611b45565b9050919050565b611d7081611d55565b82525050565b6000602082019050611d8b6000830184611d67565b92915050565b600082825260208201905092915050565b7f63616c6c6572206973206e6f7420746865206f776e6572000000000000000000600082015250565b6000611dd8601783611d91565b9150611de382611da2565b602082019050919050565b60006020820190508181036000830152611e0781611dcb565b9050919050565b7f4e487b7100000000000000000000000000000000000000000000000000000000600052601160045260246000fd5b6000611e4882611b93565b9150611e5383611b93565b9250817fffffffffffffffffffffffffffffffffffffffffffffffffffffffffffffffff0483118215151615611e8c57611e8b611e0e565b5b828202905092915050565b600081519050611ea681611c37565b92915050565b600060208284031215611ec257611ec1611bc7565b5b6000611ed084828501611e97565b91505092915050565b7f436c61696d20686173206e6f7420737461727465642079657400000000000000600082015250565b6000611f0f601983611d91565b9150611f1a82611ed9565b602082019050919050565b60006020820190508181036000830152611f3e81611f02565b9050919050565b7f416c726561647920636c61696d65640000000000000000000000000000000000600082015250565b6000611f7b600f83611d91565b9150611f8682611f45565b602082019050919050565b60006020820190508181036000830152611faa81611f6e565b9050919050565b7f4e6f7468696e6720746f20636c61696d00000000000000000000000000000000600082015250565b6000611fe7601083611d91565b9150611ff282611fb1565b602082019050919050565b6000602082019050818103600083015261201681611fda565b9050919050565b600061202882611b93565b915061203383611b93565b9250827fffffffffffffffffffffffffffffffffffffffffffffffffffffffffffffffff0382111561206857612067611e0e565b5b828201905092915050565b60006040820190506120886000830185611cef565b6120956020830184611b9d565b9392505050565b6120a581611c90565b81146120b057600080fd5b50565b6000815190506120c28161209c565b92915050565b6000602082840312156120de576120dd611bc7565b5b60006120ec848285016120b3565b91505092915050565b7f546f6b656e207472616e73666572206661696c65640000000000000000000000600082015250565b600061212b601583611d91565b9150612136826120f5565b602082019050919050565b6000602082019050818103600083015261215a8161211e565b9050919050565b600061216c82611b93565b915061217783611b93565b92508282101561218a57612189611e0e565b5b828203905092915050565b7f416d6f756e742069732077726f6e670000000000000000000000000000000000600082015250565b60006121cb600f83611d91565b91506121d682612195565b602082019050919050565b600060208201905081810360008301526121fa816121be565b9050919050565b7f4e487b7100000000000000000000000000000000000000000000000000000000600052603260045260246000fd5b600061223b82611b93565b91507fffffffffffffffffffffffffffffffffffffffffffffffffffffffffffffffff82141561226e5761226d611e0e565b5b600182019050919050565b7f4e487b7100000000000000000000000000000000000000000000000000000000600052601260045260246000fd5b60006122b382611b93565b91506122be83611b93565b9250826122ce576122cd612279565b5b828204905092915050565b600069ffffffffffffffffffff82169050919050565b6122f8816122d9565b811461230357600080fd5b50565b600081519050612315816122ef565b92915050565b6000819050919050565b61232e8161231b565b811461233957600080fd5b50565b60008151905061234b81612325565b92915050565b600080600080600060a0868803121561236d5761236c611bc7565b5b600061237b88828901612306565b955050602061238c8882890161233c565b945050604061239d88828901611e97565b93505060606123ae88828901611e97565b92505060806123bf88828901612306565b9150509295509295909350565b60006123d78261231b565b91506123e28361231b565b9250827f7fffffffffffffffffffffffffffffffffffffffffffffffffffffffffffffff048211600084136000841316161561242157612420611e0e565b5b817f8000000000000000000000000000000000000000000000000000000000000000058312600084126000841316161561245e5761245d611e0e565b5b827f8000000000000000000000000000000000000000000000000000000000000000058212600084136000841216161561249b5761249a611e0e565b5b827f7fffffffffffffffffffffffffffffffffffffffffffffffffffffffffffffff05821260008412600084121616156124d8576124d7611e0e565b5b828202905092915050565b7f496e76616c69642074696d6520666f7220627579696e67000000000000000000600082015250565b6000612519601783611d91565b9150612524826124e3565b602082019050919050565b600060208201905081810360008301526125488161250c565b9050919050565b7f4c657373207061796d656e740000000000000000000000000000000000000000600082015250565b6000612585600c83611d91565b91506125908261254f565b602082019050919050565b600060208201905081810360008301526125b481612578565b9050919050565b60006060820190506125d06000830186611b9d565b6125dd6020830185611b9d565b6125ea6040830184611b9d565b949350505050565b60006040820190506126076000830185611cef565b6126146020830184611cef565b9392505050565b7f4d616b65207375726520746f2061646420656e6f75676820616c6c6f77616e6360008201527f6500000000000000000000000000000000000000000000000000000000000000602082015250565b6000612677602183611d91565b91506126828261261b565b604082019050919050565b600060208201905081810360008301526126a68161266a565b9050919050565b60006060820190506126c26000830186611cef565b6126cf6020830185611d2b565b6126dc6040830184611b9d565b949350505050565b600081519050919050565b600081905092915050565b60005b838110156127185780820151818401526020810190506126fd565b83811115612727576000848401525b50505050565b6000612738826126e4565b61274281856126ef565b93506127528185602086016126fa565b80840191505092915050565b600061276a828461272d565b915081905092915050565b7f546f6b656e207061796d656e74206661696c6564000000000000000000000000600082015250565b60006127ab601483611d91565b91506127b682612775565b602082019050919050565b600060208201905081810360008301526127da8161279e565b9050919050565b7f4c6f772062616c616e6365000000000000000000000000000000000000000000600082015250565b6000612817600b83611d91565b9150612822826127e1565b602082019050919050565b600060208201905081810360008301526128468161280a565b9050919050565b50565b600061285d6000836126ef565b91506128688261284d565b600082019050919050565b600061287e82612850565b9150819050919050565b7f455448205061796d656e74206661696c65640000000000000000000000000000600082015250565b60006128be601283611d91565b91506128c982612888565b602082019050919050565b600060208201905081810360008301526128ed816128b1565b905091905056fea2646970667358221220f3729e6cae2d4a6c2cb0fbe3ace6908ae5d323b050d1fb80e5a20d336d003ccf64736f6c63430008090033",
  "linkReferences": {},
  "deployedLinkReferences": {}
}